{
  "_format": "hh-sol-artifact-1",
  "contractName": "QuestReward",
  "sourceName": "Contracts/contract.sol",
  "abi": [
    {
      "inputs": [],
      "stateMutability": "nonpayable",
      "type": "constructor"
    },
    {
      "anonymous": false,
      "inputs": [
        {
          "indexed": true,
          "internalType": "address",
          "name": "user",
          "type": "address"
        },
        {
          "indexed": false,
          "internalType": "uint256",
          "name": "amount",
          "type": "uint256"
        }
      ],
      "name": "CoinsRedeemed",
      "type": "event"
    },
    {
      "anonymous": false,
      "inputs": [
        {
          "indexed": true,
          "internalType": "address",
          "name": "user",
          "type": "address"
        },
        {
          "indexed": false,
          "internalType": "uint256",
          "name": "reward",
          "type": "uint256"
        }
      ],
      "name": "QuestCompleted",
      "type": "event"
    },
    {
      "inputs": [
        {
          "internalType": "address",
          "name": "user",
          "type": "address"
        }
      ],
      "name": "completeQuest",
      "outputs": [],
      "stateMutability": "nonpayable",
      "type": "function"
    },
    {
      "inputs": [
        {
          "internalType": "address",
          "name": "user",
          "type": "address"
        }
      ],
      "name": "getBalance",
      "outputs": [
        {
          "internalType": "uint256",
          "name": "",
          "type": "uint256"
        }
      ],
      "stateMutability": "view",
      "type": "function"
    },
    {
      "inputs": [],
      "name": "owner",
      "outputs": [
        {
          "internalType": "address",
          "name": "",
          "type": "address"
        }
      ],
      "stateMutability": "view",
      "type": "function"
    },
    {
      "inputs": [
        {
          "internalType": "address",
          "name": "user",
          "type": "address"
        },
        {
          "internalType": "uint256",
          "name": "amount",
          "type": "uint256"
        }
      ],
      "name": "redeemCoins",
      "outputs": [],
      "stateMutability": "nonpayable",
      "type": "function"
    },
    {
      "inputs": [
        {
          "internalType": "address",
          "name": "",
          "type": "address"
        }
      ],
      "name": "userCoins",
      "outputs": [
        {
          "internalType": "uint256",
          "name": "",
          "type": "uint256"
        }
      ],
      "stateMutability": "view",
      "type": "function"
    },
    {
      "stateMutability": "payable",
      "type": "receive"
    }
  ],
  "bytecode": "0x608060405234801561001057600080fd5b50336000806101000a81548173ffffffffffffffffffffffffffffffffffffffff021916908373ffffffffffffffffffffffffffffffffffffffff1602179055506108ba806100606000396000f3fe60806040526004361061004e5760003560e01c8063374ba01d1461005a57806377b37fe7146100835780638da5cb5b146100ac578063b8df2d60146100d7578063f8b2cb4f1461011457610055565b3661005557005b600080fd5b34801561006657600080fd5b50610081600480360381019061007c9190610546565b610151565b005b34801561008f57600080fd5b506100aa60048036038101906100a5919061051d565b6102a1565b005b3480156100b857600080fd5b506100c161046e565b6040516100ce9190610660565b60405180910390f35b3480156100e357600080fd5b506100fe60048036038101906100f9919061051d565b610492565b60405161010b91906106db565b60405180910390f35b34801561012057600080fd5b5061013b6004803603810190610136919061051d565b6104aa565b60405161014891906106db565b60405180910390f35b670de0b6b3a764000081610165919061075d565b600160008473ffffffffffffffffffffffffffffffffffffffff1673ffffffffffffffffffffffffffffffffffffffff1681526020019081526020016000205410156101e6576040517f08c379a00000000000000000000000000000000000000000000000000000000081526004016101dd9061069b565b60405180910390fd5b670de0b6b3a7640000816101fa919061075d565b600160008473ffffffffffffffffffffffffffffffffffffffff1673ffffffffffffffffffffffffffffffffffffffff168152602001908152602001600020600082825461024891906107b7565b925050819055508173ffffffffffffffffffffffffffffffffffffffff167f0bc153b265044c470c2e7c8c4c39e973ba49a520b3d69ac6dd19c50b9bcff68e8260405161029591906106db565b60405180910390a25050565b60008054906101000a900473ffffffffffffffffffffffffffffffffffffffff1673ffffffffffffffffffffffffffffffffffffffff163373ffffffffffffffffffffffffffffffffffffffff161461032f576040517f08c379a0000000000000000000000000000000000000000000000000000000008152600401610326906106bb565b60405180910390fd5b6000670de0b6b3a764000090508047101561037f576040517f08c379a00000000000000000000000000000000000000000000000000000000081526004016103769061067b565b60405180910390fd5b80600160008473ffffffffffffffffffffffffffffffffffffffff1673ffffffffffffffffffffffffffffffffffffffff16815260200190815260200160002060008282546103ce9190610707565b925050819055508173ffffffffffffffffffffffffffffffffffffffff166108fc829081150290604051600060405180830381858888f1935050505015801561041b573d6000803e3d6000fd5b508173ffffffffffffffffffffffffffffffffffffffff167f6618f11353f68847dc28cc4b36a04270fab5e356fa35386e6315ba7ff205a6338260405161046291906106db565b60405180910390a25050565b60008054906101000a900473ffffffffffffffffffffffffffffffffffffffff1681565b60016020528060005260406000206000915090505481565b6000600160008373ffffffffffffffffffffffffffffffffffffffff1673ffffffffffffffffffffffffffffffffffffffff168152602001908152602001600020549050919050565b60008135905061050281610856565b92915050565b6000813590506105178161086d565b92915050565b60006020828403121561052f57600080fd5b600061053d848285016104f3565b91505092915050565b6000806040838503121561055957600080fd5b6000610567858286016104f3565b925050602061057885828601610508565b9150509250929050565b61058b816107eb565b82525050565b600061059e601c836106f6565b91507f4e6f7420656e6f75676820457468657220696e20636f6e7472616374000000006000830152602082019050919050565b60006105de6019836106f6565b91507f496e73756666696369656e7420636f696e2062616c616e6365000000000000006000830152602082019050919050565b600061061e6015836106f6565b91507f4f6e6c792061646d696e2063616e2072657761726400000000000000000000006000830152602082019050919050565b61065a8161081d565b82525050565b60006020820190506106756000830184610582565b92915050565b6000602082019050818103600083015261069481610591565b9050919050565b600060208201905081810360008301526106b4816105d1565b9050919050565b600060208201905081810360008301526106d481610611565b9050919050565b60006020820190506106f06000830184610651565b92915050565b600082825260208201905092915050565b60006107128261081d565b915061071d8361081d565b9250827fffffffffffffffffffffffffffffffffffffffffffffffffffffffffffffffff0382111561075257610751610827565b5b828201905092915050565b60006107688261081d565b91506107738361081d565b9250817fffffffffffffffffffffffffffffffffffffffffffffffffffffffffffffffff04831182151516156107ac576107ab610827565b5b828202905092915050565b60006107c28261081d565b91506107cd8361081d565b9250828210156107e0576107df610827565b5b828203905092915050565b60006107f6826107fd565b9050919050565b600073ffffffffffffffffffffffffffffffffffffffff82169050919050565b6000819050919050565b7f4e487b7100000000000000000000000000000000000000000000000000000000600052601160045260246000fd5b61085f816107eb565b811461086a57600080fd5b50565b6108768161081d565b811461088157600080fd5b5056fea2646970667358221220df2d4333b116c18f9aa8f7920b1f96d1b89c36396d957912a98a79c24c8a05cc64736f6c63430008000033",
  "linkReferences": {},
  "deployedLinkReferences": {}
}