{
  "_format": "hh-sol-artifact-1",
  "contractName": "QuestReward",
  "sourceName": "Contracts/contract.sol",
  "abi": [
    {
      "inputs": [],
      "stateMutability": "nonpayable",
      "type": "constructor"
    },
    {
      "anonymous": false,
      "inputs": [
        {
          "indexed": true,
          "internalType": "address",
          "name": "user",
          "type": "address"
        },
        {
          "indexed": false,
          "internalType": "uint256",
          "name": "reward",
          "type": "uint256"
        }
      ],
      "name": "QuestCompleted",
      "type": "event"
    },
    {
      "inputs": [
        {
          "internalType": "address",
          "name": "user",
          "type": "address"
        }
      ],
      "name": "completeQuest",
      "outputs": [],
      "stateMutability": "nonpayable",
      "type": "function"
    },
    {
      "inputs": [
        {
          "internalType": "address",
          "name": "user",
          "type": "address"
        }
      ],
      "name": "getBalance",
      "outputs": [
        {
          "internalType": "uint256",
          "name": "",
          "type": "uint256"
        }
      ],
      "stateMutability": "view",
      "type": "function"
    },
    {
      "inputs": [],
      "name": "owner",
      "outputs": [
        {
          "internalType": "address",
          "name": "",
          "type": "address"
        }
      ],
      "stateMutability": "view",
      "type": "function"
    },
    {
      "inputs": [
        {
          "internalType": "address",
          "name": "",
          "type": "address"
        }
      ],
      "name": "userCoins",
      "outputs": [
        {
          "internalType": "uint256",
          "name": "",
          "type": "uint256"
        }
      ],
      "stateMutability": "view",
      "type": "function"
    },
    {
      "stateMutability": "payable",
      "type": "receive"
    }
  ],
  "bytecode": "0x608060405234801561001057600080fd5b50336000806101000a81548173ffffffffffffffffffffffffffffffffffffffff021916908373ffffffffffffffffffffffffffffffffffffffff1602179055506105e0806100606000396000f3fe6080604052600436106100435760003560e01c806377b37fe71461004f5780638da5cb5b14610078578063b8df2d60146100a3578063f8b2cb4f146100e05761004a565b3661004a57005b600080fd5b34801561005b57600080fd5b5061007660048036038101906100719190610384565b61011d565b005b34801561008457600080fd5b5061008d6102ea565b60405161009a919061044b565b60405180910390f35b3480156100af57600080fd5b506100ca60048036038101906100c59190610384565b61030e565b6040516100d791906104a6565b60405180910390f35b3480156100ec57600080fd5b5061010760048036038101906101029190610384565b610326565b60405161011491906104a6565b60405180910390f35b60008054906101000a900473ffffffffffffffffffffffffffffffffffffffff1673ffffffffffffffffffffffffffffffffffffffff163373ffffffffffffffffffffffffffffffffffffffff16146101ab576040517f08c379a00000000000000000000000000000000000000000000000000000000081526004016101a290610486565b60405180910390fd5b6000670de0b6b3a76400009050804710156101fb576040517f08c379a00000000000000000000000000000000000000000000000000000000081526004016101f290610466565b60405180910390fd5b80600160008473ffffffffffffffffffffffffffffffffffffffff1673ffffffffffffffffffffffffffffffffffffffff168152602001908152602001600020600082825461024a91906104d2565b925050819055508173ffffffffffffffffffffffffffffffffffffffff166108fc829081150290604051600060405180830381858888f19350505050158015610297573d6000803e3d6000fd5b508173ffffffffffffffffffffffffffffffffffffffff167f6618f11353f68847dc28cc4b36a04270fab5e356fa35386e6315ba7ff205a633826040516102de91906104a6565b60405180910390a25050565b60008054906101000a900473ffffffffffffffffffffffffffffffffffffffff1681565b60016020528060005260406000206000915090505481565b6000600160008373ffffffffffffffffffffffffffffffffffffffff1673ffffffffffffffffffffffffffffffffffffffff168152602001908152602001600020549050919050565b60008135905061037e81610593565b92915050565b60006020828403121561039657600080fd5b60006103a48482850161036f565b91505092915050565b6103b681610528565b82525050565b60006103c9601c836104c1565b91507f4e6f7420656e6f75676820457468657220696e20636f6e7472616374000000006000830152602082019050919050565b60006104096015836104c1565b91507f4f6e6c792061646d696e2063616e2072657761726400000000000000000000006000830152602082019050919050565b6104458161055a565b82525050565b600060208201905061046060008301846103ad565b92915050565b6000602082019050818103600083015261047f816103bc565b9050919050565b6000602082019050818103600083015261049f816103fc565b9050919050565b60006020820190506104bb600083018461043c565b92915050565b600082825260208201905092915050565b60006104dd8261055a565b91506104e88361055a565b9250827fffffffffffffffffffffffffffffffffffffffffffffffffffffffffffffffff0382111561051d5761051c610564565b5b828201905092915050565b60006105338261053a565b9050919050565b600073ffffffffffffffffffffffffffffffffffffffff82169050919050565b6000819050919050565b7f4e487b7100000000000000000000000000000000000000000000000000000000600052601160045260246000fd5b61059c81610528565b81146105a757600080fd5b5056fea264697066735822122025a251fa021816a51dd1f3177e2d8042097a4332c24248529c5ddb6a18ba6e2064736f6c63430008000033",
  "linkReferences": {},
  "deployedLinkReferences": {}
}