{
  "_format": "hh-sol-artifact-1",
  "contractName": "QuestReward",
  "sourceName": "Contracts/contract.sol",
  "abi": [
    {
      "inputs": [],
      "stateMutability": "nonpayable",
      "type": "constructor"
    },
    {
      "anonymous": false,
      "inputs": [
        {
          "indexed": true,
          "internalType": "address",
          "name": "user",
          "type": "address"
        },
        {
          "indexed": false,
          "internalType": "uint256",
          "name": "reward",
          "type": "uint256"
        }
      ],
      "name": "QuestCompleted",
      "type": "event"
    },
    {
      "inputs": [
        {
          "internalType": "address",
          "name": "user",
          "type": "address"
        }
      ],
      "name": "completeQuest",
      "outputs": [],
      "stateMutability": "nonpayable",
      "type": "function"
    },
    {
      "inputs": [
        {
          "internalType": "address",
          "name": "user",
          "type": "address"
        }
      ],
      "name": "getBalance",
      "outputs": [
        {
          "internalType": "uint256",
          "name": "",
          "type": "uint256"
        }
      ],
      "stateMutability": "view",
      "type": "function"
    },
    {
      "inputs": [],
      "name": "owner",
      "outputs": [
        {
          "internalType": "address",
          "name": "",
          "type": "address"
        }
      ],
      "stateMutability": "view",
      "type": "function"
    },
    {
      "inputs": [
        {
          "internalType": "address",
          "name": "",
          "type": "address"
        }
      ],
      "name": "userCoins",
      "outputs": [
        {
          "internalType": "uint256",
          "name": "",
          "type": "uint256"
        }
      ],
      "stateMutability": "view",
      "type": "function"
    },
    {
      "stateMutability": "payable",
      "type": "receive"
    }
  ],
  "bytecode": "0x6080604052348015600f57600080fd5b50336000806101000a81548173ffffffffffffffffffffffffffffffffffffffff021916908373ffffffffffffffffffffffffffffffffffffffff1602179055506105308061005f6000396000f3fe6080604052600436106100435760003560e01c806377b37fe71461004f5780638da5cb5b14610078578063b8df2d60146100a3578063f8b2cb4f146100e05761004a565b3661004a57005b600080fd5b34801561005b57600080fd5b506100766004803603810190610071919061038f565b61011d565b005b34801561008457600080fd5b5061008d6102a7565b60405161009a91906103cb565b60405180910390f35b3480156100af57600080fd5b506100ca60048036038101906100c5919061038f565b6102cb565b6040516100d791906103ff565b60405180910390f35b3480156100ec57600080fd5b506101076004803603810190610102919061038f565b6102e3565b60405161011491906103ff565b60405180910390f35b60008054906101000a900473ffffffffffffffffffffffffffffffffffffffff1673ffffffffffffffffffffffffffffffffffffffff163373ffffffffffffffffffffffffffffffffffffffff16146101ab576040517f08c379a00000000000000000000000000000000000000000000000000000000081526004016101a290610477565b60405180910390fd5b6000670de0b6b3a7640000905080600160008473ffffffffffffffffffffffffffffffffffffffff1673ffffffffffffffffffffffffffffffffffffffff168152602001908152602001600020600082825461020791906104c6565b925050819055508173ffffffffffffffffffffffffffffffffffffffff166108fc829081150290604051600060405180830381858888f19350505050158015610254573d6000803e3d6000fd5b508173ffffffffffffffffffffffffffffffffffffffff167f6618f11353f68847dc28cc4b36a04270fab5e356fa35386e6315ba7ff205a6338260405161029b91906103ff565b60405180910390a25050565b60008054906101000a900473ffffffffffffffffffffffffffffffffffffffff1681565b60016020528060005260406000206000915090505481565b6000600160008373ffffffffffffffffffffffffffffffffffffffff1673ffffffffffffffffffffffffffffffffffffffff168152602001908152602001600020549050919050565b600080fd5b600073ffffffffffffffffffffffffffffffffffffffff82169050919050565b600061035c82610331565b9050919050565b61036c81610351565b811461037757600080fd5b50565b60008135905061038981610363565b92915050565b6000602082840312156103a5576103a461032c565b5b60006103b38482850161037a565b91505092915050565b6103c581610351565b82525050565b60006020820190506103e060008301846103bc565b92915050565b6000819050919050565b6103f9816103e6565b82525050565b600060208201905061041460008301846103f0565b92915050565b600082825260208201905092915050565b7f4f6e6c792061646d696e2063616e207265776172640000000000000000000000600082015250565b600061046160158361041a565b915061046c8261042b565b602082019050919050565b6000602082019050818103600083015261049081610454565b9050919050565b7f4e487b7100000000000000000000000000000000000000000000000000000000600052601160045260246000fd5b60006104d1826103e6565b91506104dc836103e6565b92508282019050808211156104f4576104f3610497565b5b9291505056fea2646970667358221220c7c6666fe381da5c1d72abbe38627234281037882f00ac735408988eaf20fc1264736f6c634300081c0033",
  "linkReferences": {},
  "deployedLinkReferences": {}
}