{
  "_format": "hh-sol-artifact-1",
  "contractName": "QuestReward",
  "sourceName": "Contracts/contract.sol",
  "abi": [
    {
      "inputs": [],
      "stateMutability": "nonpayable",
      "type": "constructor"
    },
    {
      "anonymous": false,
      "inputs": [
        {
          "indexed": true,
          "internalType": "address",
          "name": "user",
          "type": "address"
        },
        {
          "indexed": false,
          "internalType": "uint256",
          "name": "amount",
          "type": "uint256"
        }
      ],
      "name": "QuestCompleted",
      "type": "event"
    },
    {
      "inputs": [
        {
          "internalType": "address",
          "name": "user",
          "type": "address"
        },
        {
          "internalType": "uint256",
          "name": "reward",
          "type": "uint256"
        }
      ],
      "name": "completeQuest",
      "outputs": [],
      "stateMutability": "nonpayable",
      "type": "function"
    },
    {
      "inputs": [
        {
          "internalType": "address",
          "name": "user",
          "type": "address"
        }
      ],
      "name": "getBalance",
      "outputs": [
        {
          "internalType": "uint256",
          "name": "",
          "type": "uint256"
        }
      ],
      "stateMutability": "view",
      "type": "function"
    },
    {
      "inputs": [],
      "name": "owner",
      "outputs": [
        {
          "internalType": "address",
          "name": "",
          "type": "address"
        }
      ],
      "stateMutability": "view",
      "type": "function"
    },
    {
      "inputs": [
        {
          "internalType": "address",
          "name": "",
          "type": "address"
        }
      ],
      "name": "userCoins",
      "outputs": [
        {
          "internalType": "uint256",
          "name": "",
          "type": "uint256"
        }
      ],
      "stateMutability": "view",
      "type": "function"
    }
  ],
  "bytecode": "0x6080604052348015600f57600080fd5b50336000806101000a81548173ffffffffffffffffffffffffffffffffffffffff021916908373ffffffffffffffffffffffffffffffffffffffff1602179055506105168061005f6000396000f3fe608060405234801561001057600080fd5b506004361061004c5760003560e01c80638da5cb5b14610051578063b8df2d601461006f578063eba53f7d1461009f578063f8b2cb4f146100bb575b600080fd5b6100596100eb565b60405161006691906102e7565b60405180910390f35b61008960048036038101906100849190610333565b61010f565b6040516100969190610379565b60405180910390f35b6100b960048036038101906100b491906103c0565b610127565b005b6100d560048036038101906100d09190610333565b61025d565b6040516100e29190610379565b60405180910390f35b60008054906101000a900473ffffffffffffffffffffffffffffffffffffffff1681565b60016020528060005260406000206000915090505481565b60008054906101000a900473ffffffffffffffffffffffffffffffffffffffff1673ffffffffffffffffffffffffffffffffffffffff163373ffffffffffffffffffffffffffffffffffffffff16146101b5576040517f08c379a00000000000000000000000000000000000000000000000000000000081526004016101ac9061045d565b60405180910390fd5b80600160008473ffffffffffffffffffffffffffffffffffffffff1673ffffffffffffffffffffffffffffffffffffffff168152602001908152602001600020600082825461020491906104ac565b925050819055508173ffffffffffffffffffffffffffffffffffffffff167f6618f11353f68847dc28cc4b36a04270fab5e356fa35386e6315ba7ff205a633826040516102519190610379565b60405180910390a25050565b6000600160008373ffffffffffffffffffffffffffffffffffffffff1673ffffffffffffffffffffffffffffffffffffffff168152602001908152602001600020549050919050565b600073ffffffffffffffffffffffffffffffffffffffff82169050919050565b60006102d1826102a6565b9050919050565b6102e1816102c6565b82525050565b60006020820190506102fc60008301846102d8565b92915050565b600080fd5b610310816102c6565b811461031b57600080fd5b50565b60008135905061032d81610307565b92915050565b60006020828403121561034957610348610302565b5b60006103578482850161031e565b91505092915050565b6000819050919050565b61037381610360565b82525050565b600060208201905061038e600083018461036a565b92915050565b61039d81610360565b81146103a857600080fd5b50565b6000813590506103ba81610394565b92915050565b600080604083850312156103d7576103d6610302565b5b60006103e58582860161031e565b92505060206103f6858286016103ab565b9150509250929050565b600082825260208201905092915050565b7f4f6e6c792061646d696e2063616e207265776172640000000000000000000000600082015250565b6000610447601583610400565b915061045282610411565b602082019050919050565b600060208201905081810360008301526104768161043a565b9050919050565b7f4e487b7100000000000000000000000000000000000000000000000000000000600052601160045260246000fd5b60006104b782610360565b91506104c283610360565b92508282019050808211156104da576104d961047d565b5b9291505056fea2646970667358221220c19761e74a0ff23f64de8880d6fb3d6b40ae071be4f199522cff66df7d58de9164736f6c634300081c0033",
  "linkReferences": {},
  "deployedLinkReferences": {}
}